{
  "_format": "hh-sol-artifact-1",
  "contractName": "WaifuPortal",
  "sourceName": "contracts/WaifuPortal.sol",
  "abi": [
    {
      "inputs": [],
      "stateMutability": "nonpayable",
      "type": "constructor"
    },
    {
      "anonymous": false,
      "inputs": [
        {
          "indexed": true,
          "internalType": "address",
          "name": "from",
          "type": "address"
        },
        {
          "indexed": false,
          "internalType": "uint256",
          "name": "timestamp",
          "type": "uint256"
        },
        {
          "indexed": false,
          "internalType": "string",
          "name": "image",
          "type": "string"
        }
      ],
      "name": "NewWaifu",
      "type": "event"
    },
    {
      "inputs": [],
      "name": "getAllWaifus",
      "outputs": [
        {
          "components": [
            {
              "internalType": "address",
              "name": "owner",
              "type": "address"
            },
            {
              "internalType": "string",
              "name": "image",
              "type": "string"
            },
            {
              "internalType": "uint256",
              "name": "timestamp",
              "type": "uint256"
            }
          ],
          "internalType": "struct WaifuPortal.Waifu[]",
          "name": "",
          "type": "tuple[]"
        }
      ],
      "stateMutability": "view",
      "type": "function"
    },
    {
      "inputs": [],
      "name": "getTotalWaifus",
      "outputs": [
        {
          "internalType": "uint256",
          "name": "",
          "type": "uint256"
        }
      ],
      "stateMutability": "view",
      "type": "function"
    },
    {
      "inputs": [
        {
          "internalType": "address",
          "name": "_address",
          "type": "address"
        }
      ],
      "name": "getTotalWaifusByAddress",
      "outputs": [
        {
          "internalType": "uint256",
          "name": "",
          "type": "uint256"
        }
      ],
      "stateMutability": "view",
      "type": "function"
    },
    {
      "inputs": [
        {
          "internalType": "address",
          "name": "",
          "type": "address"
        }
      ],
      "name": "lastCreatedAt",
      "outputs": [
        {
          "internalType": "uint256",
          "name": "",
          "type": "uint256"
        }
      ],
      "stateMutability": "view",
      "type": "function"
    },
    {
      "inputs": [
        {
          "internalType": "string",
          "name": "_image",
          "type": "string"
        }
      ],
      "name": "makeWaifu",
      "outputs": [],
      "stateMutability": "nonpayable",
      "type": "function"
    }
  ],
  "bytecode": "0x608060405234801561001057600080fd5b50610d66806100206000396000f3fe608060405234801561001057600080fd5b50600436106100575760003560e01c8063623e320d1461005c578063b94afa711461008c578063d8c9a975146100bc578063e2fa7aab146100da578063ec0daaf0146100f6575b600080fd5b610076600480360381019061007191906106fc565b610114565b60405161008391906109a5565b60405180910390f35b6100a660048036038101906100a191906106fc565b610198565b6040516100b391906109a5565b60405180910390f35b6100c46101b0565b6040516100d191906109a5565b60405180910390f35b6100f460048036038101906100ef9190610725565b6101b9565b005b6100fe6103c0565b60405161010b9190610963565b60405180910390f35b600061018e826040518060400160405280600c81526020017f68617320637265617465642000000000000000000000000000000000000000008152506000546040518060400160405280600881526020017f20696d6167657321000000000000000000000000000000000000000000000000815250610511565b6000549050919050565b60026020528060005260406000206000915090505481565b60008054905090565b42603c600260003373ffffffffffffffffffffffffffffffffffffffff1673ffffffffffffffffffffffffffffffffffffffff168152602001908152602001600020546102069190610aac565b10610246576040517f08c379a000000000000000000000000000000000000000000000000000000000815260040161023d90610985565b60405180910390fd5b42600260003373ffffffffffffffffffffffffffffffffffffffff1673ffffffffffffffffffffffffffffffffffffffff1681526020019081526020016000208190555060008081548092919061029c90610be3565b9190505550600160405180606001604052803373ffffffffffffffffffffffffffffffffffffffff16815260200183815260200142815250908060018154018082558091505060019003906000526020600020906003020160009091909190915060008201518160000160006101000a81548173ffffffffffffffffffffffffffffffffffffffff021916908373ffffffffffffffffffffffffffffffffffffffff16021790555060208201518160010190805190602001906103609291906105dc565b506040820151816002015550503373ffffffffffffffffffffffffffffffffffffffff167fc4e5914e31e4bd619bb4692292a0db7081f58f83380edff68439cb832f5258e442836040516103b59291906109c0565b60405180910390a250565b60606001805480602002602001604051908101604052809291908181526020016000905b8282101561050857838290600052602060002090600302016040518060600160405290816000820160009054906101000a900473ffffffffffffffffffffffffffffffffffffffff1673ffffffffffffffffffffffffffffffffffffffff1673ffffffffffffffffffffffffffffffffffffffff16815260200160018201805461046d90610b80565b80601f016020809104026020016040519081016040528092919081815260200182805461049990610b80565b80156104e65780601f106104bb576101008083540402835291602001916104e6565b820191906000526020600020905b8154815290600101906020018083116104c957829003601f168201915b50505050508152602001600282015481525050815260200190600101906103e4565b50505050905090565b6105ad8484848460405160240161052b9493929190610910565b6040516020818303038152906040527f5d1365c9000000000000000000000000000000000000000000000000000000007bffffffffffffffffffffffffffffffffffffffffffffffffffffffff19166020820180517bffffffffffffffffffffffffffffffffffffffffffffffffffffffff83818316178352505050506105b3565b50505050565b60008151905060006a636f6e736f6c652e6c6f679050602083016000808483855afa5050505050565b8280546105e890610b80565b90600052602060002090601f01602090048101928261060a5760008555610651565b82601f1061062357805160ff1916838001178555610651565b82800160010185558215610651579182015b82811115610650578251825591602001919060010190610635565b5b50905061065e9190610662565b5090565b5b8082111561067b576000816000905550600101610663565b5090565b600061069261068d84610a15565b6109f0565b9050828152602081018484840111156106aa57600080fd5b6106b5848285610b3e565b509392505050565b6000813590506106cc81610d19565b92915050565b600082601f8301126106e357600080fd5b81356106f384826020860161067f565b91505092915050565b60006020828403121561070e57600080fd5b600061071c848285016106bd565b91505092915050565b60006020828403121561073757600080fd5b600082013567ffffffffffffffff81111561075157600080fd5b61075d848285016106d2565b91505092915050565b600061077283836108a2565b905092915050565b61078381610b02565b82525050565b61079281610b02565b82525050565b60006107a382610a56565b6107ad8185610a79565b9350836020820285016107bf85610a46565b8060005b858110156107fb57848403895281516107dc8582610766565b94506107e783610a6c565b925060208a019950506001810190506107c3565b50829750879550505050505092915050565b600061081882610a61565b6108228185610a8a565b9350610832818560208601610b4d565b61083b81610cb9565b840191505092915050565b600061085182610a61565b61085b8185610a9b565b935061086b818560208601610b4d565b61087481610cb9565b840191505092915050565b600061088c603183610a9b565b915061089782610cca565b604082019050919050565b60006060830160008301516108ba600086018261077a565b50602083015184820360208601526108d2828261080d565b91505060408301516108e760408601826108f2565b508091505092915050565b6108fb81610b34565b82525050565b61090a81610b34565b82525050565b60006080820190506109256000830187610789565b81810360208301526109378186610846565b90506109466040830185610901565b81810360608301526109588184610846565b905095945050505050565b6000602082019050818103600083015261097d8184610798565b905092915050565b6000602082019050818103600083015261099e8161087f565b9050919050565b60006020820190506109ba6000830184610901565b92915050565b60006040820190506109d56000830185610901565b81810360208301526109e78184610846565b90509392505050565b60006109fa610a0b565b9050610a068282610bb2565b919050565b6000604051905090565b600067ffffffffffffffff821115610a3057610a2f610c8a565b5b610a3982610cb9565b9050602081019050919050565b6000819050602082019050919050565b600081519050919050565b600081519050919050565b6000602082019050919050565b600082825260208201905092915050565b600082825260208201905092915050565b600082825260208201905092915050565b6000610ab782610b34565b9150610ac283610b34565b9250827fffffffffffffffffffffffffffffffffffffffffffffffffffffffffffffffff03821115610af757610af6610c2c565b5b828201905092915050565b6000610b0d82610b14565b9050919050565b600073ffffffffffffffffffffffffffffffffffffffff82169050919050565b6000819050919050565b82818337600083830152505050565b60005b83811015610b6b578082015181840152602081019050610b50565b83811115610b7a576000848401525b50505050565b60006002820490506001821680610b9857607f821691505b60208210811415610bac57610bab610c5b565b5b50919050565b610bbb82610cb9565b810181811067ffffffffffffffff82111715610bda57610bd9610c8a565b5b80604052505050565b6000610bee82610b34565b91507fffffffffffffffffffffffffffffffffffffffffffffffffffffffffffffffff821415610c2157610c20610c2c565b5b600182019050919050565b7f4e487b7100000000000000000000000000000000000000000000000000000000600052601160045260246000fd5b7f4e487b7100000000000000000000000000000000000000000000000000000000600052602260045260246000fd5b7f4e487b7100000000000000000000000000000000000000000000000000000000600052604160045260246000fd5b6000601f19601f8301169050919050565b7f4d7573742077616974203630207365636f6e6473206265666f7265206372656160008201527f74696e672061206e657720496d6167652e000000000000000000000000000000602082015250565b610d2281610b02565b8114610d2d57600080fd5b5056fea2646970667358221220b41c2ba85f65315c594ae6644e512949d7fa34b446c9f33bfaa5ef6b9773412764736f6c63430008040033",
  "linkReferences": {},
  "deployedLinkReferences": {}
}