{
  "_format": "hh-sol-artifact-1",
  "contractName": "WavePortal",
  "sourceName": "contracts/WavePortal.sol",
  "abi": [
    {
      "inputs": [],
      "stateMutability": "payable",
      "type": "constructor"
    },
    {
      "anonymous": false,
      "inputs": [
        {
          "indexed": true,
          "internalType": "address",
          "name": "from",
          "type": "address"
        },
        {
          "indexed": false,
          "internalType": "uint256",
          "name": "timestamp",
          "type": "uint256"
        },
        {
          "indexed": false,
          "internalType": "string",
          "name": "message",
          "type": "string"
        }
      ],
      "name": "NewWave",
      "type": "event"
    },
    {
      "inputs": [],
      "name": "getAllWaves",
      "outputs": [
        {
          "components": [
            {
              "internalType": "address",
              "name": "waver",
              "type": "address"
            },
            {
              "internalType": "string",
              "name": "message",
              "type": "string"
            },
            {
              "internalType": "uint256",
              "name": "timestamp",
              "type": "uint256"
            }
          ],
          "internalType": "struct WavePortal.Wave[]",
          "name": "",
          "type": "tuple[]"
        }
      ],
      "stateMutability": "view",
      "type": "function"
    },
    {
      "inputs": [],
      "name": "getTotalWaves",
      "outputs": [
        {
          "internalType": "uint256",
          "name": "",
          "type": "uint256"
        }
      ],
      "stateMutability": "view",
      "type": "function"
    },
    {
      "inputs": [
        {
          "internalType": "address",
          "name": "_address",
          "type": "address"
        }
      ],
      "name": "getTotalWavesByAddress",
      "outputs": [
        {
          "internalType": "uint256",
          "name": "",
          "type": "uint256"
        }
      ],
      "stateMutability": "view",
      "type": "function"
    },
    {
      "inputs": [
        {
          "internalType": "address",
          "name": "",
          "type": "address"
        }
      ],
      "name": "lastWavedAt",
      "outputs": [
        {
          "internalType": "uint256",
          "name": "",
          "type": "uint256"
        }
      ],
      "stateMutability": "view",
      "type": "function"
    },
    {
      "inputs": [
        {
          "internalType": "string",
          "name": "_message",
          "type": "string"
        }
      ],
      "name": "makeWave",
      "outputs": [],
      "stateMutability": "nonpayable",
      "type": "function"
    }
  ],
  "bytecode": "0x60806040526200004f6040518060400160405280601881526020017f496e696369616e646f20736d61727420636f6e747261637400000000000000008152506200007760201b620006cd1760201c565b606444426200005f9190620001c4565b6200006b919062000261565b60018190555062000308565b62000117816040516024016200008e919062000184565b6040516020818303038152906040527f41304fac000000000000000000000000000000000000000000000000000000007bffffffffffffffffffffffffffffffffffffffffffffffffffffffff19166020820180517bffffffffffffffffffffffffffffffffffffffffffffffffffffffff83818316178352505050506200011a60201b60201c565b50565b60008151905060006a636f6e736f6c652e6c6f679050602083016000808483855afa5050505050565b60006200015082620001a8565b6200015c8185620001b3565b93506200016e8185602086016200022b565b6200017981620002f7565b840191505092915050565b60006020820190508181036000830152620001a0818462000143565b905092915050565b600081519050919050565b600082825260208201905092915050565b6000620001d18262000221565b9150620001de8362000221565b9250827fffffffffffffffffffffffffffffffffffffffffffffffffffffffffffffffff0382111562000216576200021562000299565b5b828201905092915050565b6000819050919050565b60005b838110156200024b5780820151818401526020810190506200022e565b838111156200025b576000848401525b50505050565b60006200026e8262000221565b91506200027b8362000221565b9250826200028e576200028d620002c8565b5b828206905092915050565b7f4e487b7100000000000000000000000000000000000000000000000000000000600052601160045260246000fd5b7f4e487b7100000000000000000000000000000000000000000000000000000000600052601260045260246000fd5b6000601f19601f8301169050919050565b61132780620003186000396000f3fe608060405234801561001057600080fd5b50600436106100575760003560e01c80631e0070d31461005c5780639a2cdc081461008c578063a42a4663146100aa578063bd43a908146100da578063fa2d6203146100f8575b600080fd5b61007660048036038101906100719190610a86565b610114565b6040516100839190610e5a565b60405180910390f35b610094610162565b6040516100a19190610e5a565b60405180910390f35b6100c460048036038101906100bf9190610a86565b6101ad565b6040516100d19190610e5a565b60405180910390f35b6100e26101c5565b6040516100ef9190610d18565b60405180910390f35b610112600480360381019061010d9190610aaf565b610316565b005b60006101586040518060400160405280601681526020017f2573206861732077617665642025642074696d6573210000000000000000000081525083600054610766565b6000549050919050565b60006101a56040518060400160405280601781526020017f5765206861766520256420746f74616c20776176657321000000000000000000815250600054610805565b600054905090565b60036020528060005260406000206000915090505481565b60606002805480602002602001604051908101604052809291908181526020016000905b8282101561030d57838290600052602060002090600302016040518060600160405290816000820160009054906101000a900473ffffffffffffffffffffffffffffffffffffffff1673ffffffffffffffffffffffffffffffffffffffff1673ffffffffffffffffffffffffffffffffffffffff16815260200160018201805461027290611040565b80601f016020809104026020016040519081016040528092919081815260200182805461029e90611040565b80156102eb5780601f106102c0576101008083540402835291602001916102eb565b820191906000526020600020905b8154815290600101906020018083116102ce57829003601f168201915b50505050508152602001600282015481525050815260200190600101906101e9565b50505050905090565b42603c600360003373ffffffffffffffffffffffffffffffffffffffff1673ffffffffffffffffffffffffffffffffffffffff168152602001908152602001600020546103639190610f6c565b106103a3576040517f08c379a000000000000000000000000000000000000000000000000000000000815260040161039a90610e3a565b60405180910390fd5b42600360003373ffffffffffffffffffffffffffffffffffffffff1673ffffffffffffffffffffffffffffffffffffffff168152602001908152602001600020819055506000808154809291906103f9906110a3565b919050555061043d6040518060400160405280600d81526020017f2573206861732077617665642100000000000000000000000000000000000000815250336108a1565b600260405180606001604052803373ffffffffffffffffffffffffffffffffffffffff16815260200183815260200142815250908060018154018082558091505060019003906000526020600020906003020160009091909190915060008201518160000160006101000a81548173ffffffffffffffffffffffffffffffffffffffff021916908373ffffffffffffffffffffffffffffffffffffffff16021790555060208201518160010190805190602001906104fc929190610966565b506040820151816002015550506064600154424461051a9190610f6c565b6105249190610f6c565b61052e91906110ec565b60018190555060326001541161067a5761057d6040518060400160405280600781526020017f257320776f6e2100000000000000000000000000000000000000000000000000815250336108a1565b6000655af3107a40009050478111156105cb576040517f08c379a00000000000000000000000000000000000000000000000000000000081526004016105c290610dfa565b60405180910390fd5b60003373ffffffffffffffffffffffffffffffffffffffff16826040516105f190610d03565b60006040518083038185875af1925050503d806000811461062e576040519150601f19603f3d011682016040523d82523d6000602084013e610633565b606091505b5050905080610677576040517f08c379a000000000000000000000000000000000000000000000000000000000815260040161066e90610e1a565b60405180910390fd5b50505b3373ffffffffffffffffffffffffffffffffffffffff167f5f7e16dc676677766a70e9c5628aa6c54ddb8b6e5188e2ae1e1f17f1ffbea71642836040516106c2929190610e75565b60405180910390a250565b610763816040516024016106e19190610d3a565b6040516020818303038152906040527f41304fac000000000000000000000000000000000000000000000000000000007bffffffffffffffffffffffffffffffffffffffffffffffffffffffff19166020820180517bffffffffffffffffffffffffffffffffffffffffffffffffffffffff838183161783525050505061093d565b50565b61080083838360405160240161077e93929190610d8c565b6040516020818303038152906040527f07c81217000000000000000000000000000000000000000000000000000000007bffffffffffffffffffffffffffffffffffffffffffffffffffffffff19166020820180517bffffffffffffffffffffffffffffffffffffffffffffffffffffffff838183161783525050505061093d565b505050565b61089d828260405160240161081b929190610dca565b6040516020818303038152906040527f9710a9d0000000000000000000000000000000000000000000000000000000007bffffffffffffffffffffffffffffffffffffffffffffffffffffffff19166020820180517bffffffffffffffffffffffffffffffffffffffffffffffffffffffff838183161783525050505061093d565b5050565b61093982826040516024016108b7929190610d5c565b6040516020818303038152906040527f319af333000000000000000000000000000000000000000000000000000000007bffffffffffffffffffffffffffffffffffffffffffffffffffffffff19166020820180517bffffffffffffffffffffffffffffffffffffffffffffffffffffffff838183161783525050505061093d565b5050565b60008151905060006a636f6e736f6c652e6c6f679050602083016000808483855afa5050505050565b82805461097290611040565b90600052602060002090601f01602090048101928261099457600085556109db565b82601f106109ad57805160ff19168380011785556109db565b828001600101855582156109db579182015b828111156109da5782518255916020019190600101906109bf565b5b5090506109e891906109ec565b5090565b5b80821115610a055760008160009055506001016109ed565b5090565b6000610a1c610a1784610eca565b610ea5565b905082815260208101848484011115610a3457600080fd5b610a3f848285610ffe565b509392505050565b600081359050610a56816112da565b92915050565b600082601f830112610a6d57600080fd5b8135610a7d848260208601610a09565b91505092915050565b600060208284031215610a9857600080fd5b6000610aa684828501610a47565b91505092915050565b600060208284031215610ac157600080fd5b600082013567ffffffffffffffff811115610adb57600080fd5b610ae784828501610a5c565b91505092915050565b6000610afc8383610c95565b905092915050565b610b0d81610fc2565b82525050565b610b1c81610fc2565b82525050565b6000610b2d82610f0b565b610b378185610f2e565b935083602082028501610b4985610efb565b8060005b85811015610b855784840389528151610b668582610af0565b9450610b7183610f21565b925060208a01995050600181019050610b4d565b50829750879550505050505092915050565b6000610ba282610f16565b610bac8185610f4a565b9350610bbc81856020860161100d565b610bc5816111d9565b840191505092915050565b6000610bdb82610f16565b610be58185610f5b565b9350610bf581856020860161100d565b610bfe816111d9565b840191505092915050565b6000610c16603483610f5b565b9150610c21826111ea565b604082019050919050565b6000610c39602783610f5b565b9150610c4482611239565b604082019050919050565b6000610c5c602983610f5b565b9150610c6782611288565b604082019050919050565b6000610c7f600083610f3f565b9150610c8a826112d7565b600082019050919050565b6000606083016000830151610cad6000860182610b04565b5060208301518482036020860152610cc58282610b97565b9150506040830151610cda6040860182610ce5565b508091505092915050565b610cee81610ff4565b82525050565b610cfd81610ff4565b82525050565b6000610d0e82610c72565b9150819050919050565b60006020820190508181036000830152610d328184610b22565b905092915050565b60006020820190508181036000830152610d548184610bd0565b905092915050565b60006040820190508181036000830152610d768185610bd0565b9050610d856020830184610b13565b9392505050565b60006060820190508181036000830152610da68186610bd0565b9050610db56020830185610b13565b610dc26040830184610cf4565b949350505050565b60006040820190508181036000830152610de48185610bd0565b9050610df36020830184610cf4565b9392505050565b60006020820190508181036000830152610e1381610c09565b9050919050565b60006020820190508181036000830152610e3381610c2c565b9050919050565b60006020820190508181036000830152610e5381610c4f565b9050919050565b6000602082019050610e6f6000830184610cf4565b92915050565b6000604082019050610e8a6000830185610cf4565b8181036020830152610e9c8184610bd0565b90509392505050565b6000610eaf610ec0565b9050610ebb8282611072565b919050565b6000604051905090565b600067ffffffffffffffff821115610ee557610ee46111aa565b5b610eee826111d9565b9050602081019050919050565b6000819050602082019050919050565b600081519050919050565b600081519050919050565b6000602082019050919050565b600082825260208201905092915050565b600081905092915050565b600082825260208201905092915050565b600082825260208201905092915050565b6000610f7782610ff4565b9150610f8283610ff4565b9250827fffffffffffffffffffffffffffffffffffffffffffffffffffffffffffffffff03821115610fb757610fb661111d565b5b828201905092915050565b6000610fcd82610fd4565b9050919050565b600073ffffffffffffffffffffffffffffffffffffffff82169050919050565b6000819050919050565b82818337600083830152505050565b60005b8381101561102b578082015181840152602081019050611010565b8381111561103a576000848401525b50505050565b6000600282049050600182168061105857607f821691505b6020821081141561106c5761106b61117b565b5b50919050565b61107b826111d9565b810181811067ffffffffffffffff8211171561109a576110996111aa565b5b80604052505050565b60006110ae82610ff4565b91507fffffffffffffffffffffffffffffffffffffffffffffffffffffffffffffffff8214156110e1576110e061111d565b5b600182019050919050565b60006110f782610ff4565b915061110283610ff4565b9250826111125761111161114c565b5b828206905092915050565b7f4e487b7100000000000000000000000000000000000000000000000000000000600052601160045260246000fd5b7f4e487b7100000000000000000000000000000000000000000000000000000000600052601260045260246000fd5b7f4e487b7100000000000000000000000000000000000000000000000000000000600052602260045260246000fd5b7f4e487b7100000000000000000000000000000000000000000000000000000000600052604160045260246000fd5b6000601f19601f8301169050919050565b7f547279696e6720746f207769746864726177206d6f7265206d6f6e657920746860008201527f616e2074686520636f6e7472616374206861732e000000000000000000000000602082015250565b7f4661696c656420746f207769746864726177206d6f6e65792066726f6d20636f60008201527f6e74726163742e00000000000000000000000000000000000000000000000000602082015250565b7f4d7573742077616974203630207365636f6e6473206265666f7265207761766960008201527f6e6720616761696e2e0000000000000000000000000000000000000000000000602082015250565b50565b6112e381610fc2565b81146112ee57600080fd5b5056fea2646970667358221220f5825d2057965f5f846bb408a6a7407cda718c49b0bc8a871e14f8dc87d1663964736f6c63430008040033",
  "linkReferences": {},
  "deployedLinkReferences": {}
}