{
  "_format": "hh-sol-artifact-1",
  "contractName": "WavePortal",
  "sourceName": "contracts/WavePortal.sol",
  "abi": [
    {
      "inputs": [],
      "stateMutability": "nonpayable",
      "type": "constructor"
    },
    {
      "anonymous": false,
      "inputs": [
        {
          "indexed": true,
          "internalType": "address",
          "name": "from",
          "type": "address"
        },
        {
          "indexed": false,
          "internalType": "uint256",
          "name": "timestamp",
          "type": "uint256"
        },
        {
          "indexed": false,
          "internalType": "string",
          "name": "message",
          "type": "string"
        }
      ],
      "name": "NewWave",
      "type": "event"
    },
    {
      "inputs": [],
      "name": "getAllWaves",
      "outputs": [
        {
          "components": [
            {
              "internalType": "address",
              "name": "waver",
              "type": "address"
            },
            {
              "internalType": "string",
              "name": "message",
              "type": "string"
            },
            {
              "internalType": "uint256",
              "name": "timestamp",
              "type": "uint256"
            }
          ],
          "internalType": "struct WavePortal.Wave[]",
          "name": "",
          "type": "tuple[]"
        }
      ],
      "stateMutability": "view",
      "type": "function"
    },
    {
      "inputs": [],
      "name": "getTotalWaves",
      "outputs": [
        {
          "internalType": "uint256",
          "name": "",
          "type": "uint256"
        }
      ],
      "stateMutability": "view",
      "type": "function"
    },
    {
      "inputs": [
        {
          "internalType": "address",
          "name": "_address",
          "type": "address"
        }
      ],
      "name": "getTotalWavesByAddress",
      "outputs": [
        {
          "internalType": "uint256",
          "name": "",
          "type": "uint256"
        }
      ],
      "stateMutability": "view",
      "type": "function"
    },
    {
      "inputs": [
        {
          "internalType": "string",
          "name": "_message",
          "type": "string"
        }
      ],
      "name": "makeWave",
      "outputs": [],
      "stateMutability": "nonpayable",
      "type": "function"
    }
  ],
  "bytecode": "0x60806040523480156200001157600080fd5b506200005d6040518060400160405280601881526020017f496e696369616e646f20736d61727420636f6e747261637400000000000000008152506200006360201b620004381760201c565b620001f7565b62000103816040516024016200007a919062000170565b6040516020818303038152906040527f41304fac000000000000000000000000000000000000000000000000000000007bffffffffffffffffffffffffffffffffffffffffffffffffffffffff19166020820180517bffffffffffffffffffffffffffffffffffffffffffffffffffffffff83818316178352505050506200010660201b60201c565b50565b60008151905060006a636f6e736f6c652e6c6f679050602083016000808483855afa5050505050565b60006200013c8262000194565b6200014881856200019f565b93506200015a818560208601620001b0565b6200016581620001e6565b840191505092915050565b600060208201905081810360008301526200018c81846200012f565b905092915050565b600081519050919050565b600082825260208201905092915050565b60005b83811015620001d0578082015181840152602081019050620001b3565b83811115620001e0576000848401525b50505050565b6000601f19601f8301169050919050565b610de080620002076000396000f3fe608060405234801561001057600080fd5b506004361061004c5760003560e01c80631e0070d3146100515780639a2cdc0814610081578063bd43a9081461009f578063fa2d6203146100bd575b600080fd5b61006b600480360381019061006691906107f1565b6100d9565b6040516100789190610ac4565b60405180910390f35b610089610127565b6040516100969190610ac4565b60405180910390f35b6100a7610172565b6040516100b491906109e2565b60405180910390f35b6100d760048036038101906100d2919061081a565b6102c3565b005b600061011d6040518060400160405280601681526020017f2573206861732077617665642025642074696d65732100000000000000000000815250836000546104d1565b6000549050919050565b600061016a6040518060400160405280601781526020017f5765206861766520256420746f74616c20776176657321000000000000000000815250600054610570565b600054905090565b60606001805480602002602001604051908101604052809291908181526020016000905b828210156102ba57838290600052602060002090600302016040518060600160405290816000820160009054906101000a900473ffffffffffffffffffffffffffffffffffffffff1673ffffffffffffffffffffffffffffffffffffffff1673ffffffffffffffffffffffffffffffffffffffff16815260200160018201805461021f90610c49565b80601f016020809104026020016040519081016040528092919081815260200182805461024b90610c49565b80156102985780601f1061026d57610100808354040283529160200191610298565b820191906000526020600020905b81548152906001019060200180831161027b57829003601f168201915b5050505050815260200160028201548152505081526020019060010190610196565b50505050905090565b6000808154809291906102d590610cac565b91905055506103196040518060400160405280600d81526020017f25732068617320776176656421000000000000000000000000000000000000008152503361060c565b600160405180606001604052803373ffffffffffffffffffffffffffffffffffffffff16815260200183815260200142815250908060018154018082558091505060019003906000526020600020906003020160009091909190915060008201518160000160006101000a81548173ffffffffffffffffffffffffffffffffffffffff021916908373ffffffffffffffffffffffffffffffffffffffff16021790555060208201518160010190805190602001906103d89291906106d1565b506040820151816002015550503373ffffffffffffffffffffffffffffffffffffffff167f5f7e16dc676677766a70e9c5628aa6c54ddb8b6e5188e2ae1e1f17f1ffbea716428360405161042d929190610adf565b60405180910390a250565b6104ce8160405160240161044c9190610a04565b6040516020818303038152906040527f41304fac000000000000000000000000000000000000000000000000000000007bffffffffffffffffffffffffffffffffffffffffffffffffffffffff19166020820180517bffffffffffffffffffffffffffffffffffffffffffffffffffffffff83818316178352505050506106a8565b50565b61056b8383836040516024016104e993929190610a56565b6040516020818303038152906040527f07c81217000000000000000000000000000000000000000000000000000000007bffffffffffffffffffffffffffffffffffffffffffffffffffffffff19166020820180517bffffffffffffffffffffffffffffffffffffffffffffffffffffffff83818316178352505050506106a8565b505050565b6106088282604051602401610586929190610a94565b6040516020818303038152906040527f9710a9d0000000000000000000000000000000000000000000000000000000007bffffffffffffffffffffffffffffffffffffffffffffffffffffffff19166020820180517bffffffffffffffffffffffffffffffffffffffffffffffffffffffff83818316178352505050506106a8565b5050565b6106a48282604051602401610622929190610a26565b6040516020818303038152906040527f319af333000000000000000000000000000000000000000000000000000000007bffffffffffffffffffffffffffffffffffffffffffffffffffffffff19166020820180517bffffffffffffffffffffffffffffffffffffffffffffffffffffffff83818316178352505050506106a8565b5050565b60008151905060006a636f6e736f6c652e6c6f679050602083016000808483855afa5050505050565b8280546106dd90610c49565b90600052602060002090601f0160209004810192826106ff5760008555610746565b82601f1061071857805160ff1916838001178555610746565b82800160010185558215610746579182015b8281111561074557825182559160200191906001019061072a565b5b5090506107539190610757565b5090565b5b80821115610770576000816000905550600101610758565b5090565b600061078761078284610b34565b610b0f565b90508281526020810184848401111561079f57600080fd5b6107aa848285610c07565b509392505050565b6000813590506107c181610d93565b92915050565b600082601f8301126107d857600080fd5b81356107e8848260208601610774565b91505092915050565b60006020828403121561080357600080fd5b6000610811848285016107b2565b91505092915050565b60006020828403121561082c57600080fd5b600082013567ffffffffffffffff81111561084657600080fd5b610852848285016107c7565b91505092915050565b60006108678383610974565b905092915050565b61087881610bcb565b82525050565b61088781610bcb565b82525050565b600061089882610b75565b6108a28185610b98565b9350836020820285016108b485610b65565b8060005b858110156108f057848403895281516108d1858261085b565b94506108dc83610b8b565b925060208a019950506001810190506108b8565b50829750879550505050505092915050565b600061090d82610b80565b6109178185610ba9565b9350610927818560208601610c16565b61093081610d82565b840191505092915050565b600061094682610b80565b6109508185610bba565b9350610960818560208601610c16565b61096981610d82565b840191505092915050565b600060608301600083015161098c600086018261086f565b50602083015184820360208601526109a48282610902565b91505060408301516109b960408601826109c4565b508091505092915050565b6109cd81610bfd565b82525050565b6109dc81610bfd565b82525050565b600060208201905081810360008301526109fc818461088d565b905092915050565b60006020820190508181036000830152610a1e818461093b565b905092915050565b60006040820190508181036000830152610a40818561093b565b9050610a4f602083018461087e565b9392505050565b60006060820190508181036000830152610a70818661093b565b9050610a7f602083018561087e565b610a8c60408301846109d3565b949350505050565b60006040820190508181036000830152610aae818561093b565b9050610abd60208301846109d3565b9392505050565b6000602082019050610ad960008301846109d3565b92915050565b6000604082019050610af460008301856109d3565b8181036020830152610b06818461093b565b90509392505050565b6000610b19610b2a565b9050610b258282610c7b565b919050565b6000604051905090565b600067ffffffffffffffff821115610b4f57610b4e610d53565b5b610b5882610d82565b9050602081019050919050565b6000819050602082019050919050565b600081519050919050565b600081519050919050565b6000602082019050919050565b600082825260208201905092915050565b600082825260208201905092915050565b600082825260208201905092915050565b6000610bd682610bdd565b9050919050565b600073ffffffffffffffffffffffffffffffffffffffff82169050919050565b6000819050919050565b82818337600083830152505050565b60005b83811015610c34578082015181840152602081019050610c19565b83811115610c43576000848401525b50505050565b60006002820490506001821680610c6157607f821691505b60208210811415610c7557610c74610d24565b5b50919050565b610c8482610d82565b810181811067ffffffffffffffff82111715610ca357610ca2610d53565b5b80604052505050565b6000610cb782610bfd565b91507fffffffffffffffffffffffffffffffffffffffffffffffffffffffffffffffff821415610cea57610ce9610cf5565b5b600182019050919050565b7f4e487b7100000000000000000000000000000000000000000000000000000000600052601160045260246000fd5b7f4e487b7100000000000000000000000000000000000000000000000000000000600052602260045260246000fd5b7f4e487b7100000000000000000000000000000000000000000000000000000000600052604160045260246000fd5b6000601f19601f8301169050919050565b610d9c81610bcb565b8114610da757600080fd5b5056fea26469706673582212200bc1e9c05ddb6e82eacb1395354cf09b9bb525be68333d7b7af17af4db75a4d164736f6c63430008040033",
  "linkReferences": {},
  "deployedLinkReferences": {}
}