{
  "_format": "hh-sol-artifact-1",
  "contractName": "WavePortal",
  "sourceName": "contracts/WavePortal.sol",
  "abi": [
    {
      "inputs": [],
      "stateMutability": "nonpayable",
      "type": "constructor"
    },
    {
      "inputs": [],
      "name": "getTotalWaves",
      "outputs": [
        {
          "internalType": "uint256",
          "name": "",
          "type": "uint256"
        }
      ],
      "stateMutability": "view",
      "type": "function"
    },
    {
      "inputs": [
        {
          "internalType": "address",
          "name": "_address",
          "type": "address"
        }
      ],
      "name": "getTotalWavesByAddress",
      "outputs": [
        {
          "internalType": "uint256",
          "name": "",
          "type": "uint256"
        }
      ],
      "stateMutability": "view",
      "type": "function"
    },
    {
      "inputs": [],
      "name": "makeWave",
      "outputs": [],
      "stateMutability": "nonpayable",
      "type": "function"
    }
  ],
  "bytecode": "0x608060405234801561001057600080fd5b506100596040518060400160405280601881526020017f496e696369616e646f20736d61727420636f6e7472616374000000000000000081525061005e60201b61018f1760201c565b6101e1565b6100fa81604051602401610072919061015f565b6040516020818303038152906040527f41304fac000000000000000000000000000000000000000000000000000000007bffffffffffffffffffffffffffffffffffffffffffffffffffffffff19166020820180517bffffffffffffffffffffffffffffffffffffffffffffffffffffffff83818316178352505050506100fd60201b60201c565b50565b60008151905060006a636f6e736f6c652e6c6f679050602083016000808483855afa5050505050565b600061013182610181565b61013b818561018c565b935061014b81856020860161019d565b610154816101d0565b840191505092915050565b600060208201905081810360008301526101798184610126565b905092915050565b600081519050919050565b600082825260208201905092915050565b60005b838110156101bb5780820151818401526020810190506101a0565b838111156101ca576000848401525b50505050565b6000601f19601f8301169050919050565b6106f9806101f06000396000f3fe608060405234801561001057600080fd5b50600436106100415760003560e01c80631e0070d3146100465780638c0a7eea146100765780639a2cdc0814610080575b600080fd5b610060600480360381019061005b919061043d565b61009e565b60405161006d919061057d565b60405180910390f35b61007e6100ec565b005b610088610144565b604051610095919061057d565b60405180910390f35b60006100e26040518060400160405280601681526020017f2573206861732077617665642025642074696d6573210000000000000000000081525083600054610228565b6000549050919050565b6000808154809291906100fe90610623565b91905055506101426040518060400160405280600d81526020017f2573206861732077617665642100000000000000000000000000000000000000815250336102c7565b565b60006101876040518060400160405280601781526020017f5765206861766520256420746f74616c20776176657321000000000000000000815250600054610363565b600054905090565b610225816040516024016101a391906104bd565b6040516020818303038152906040527f41304fac000000000000000000000000000000000000000000000000000000007bffffffffffffffffffffffffffffffffffffffffffffffffffffffff19166020820180517bffffffffffffffffffffffffffffffffffffffffffffffffffffffff83818316178352505050506103ff565b50565b6102c28383836040516024016102409392919061050f565b6040516020818303038152906040527f07c81217000000000000000000000000000000000000000000000000000000007bffffffffffffffffffffffffffffffffffffffffffffffffffffffff19166020820180517bffffffffffffffffffffffffffffffffffffffffffffffffffffffff83818316178352505050506103ff565b505050565b61035f82826040516024016102dd9291906104df565b6040516020818303038152906040527f319af333000000000000000000000000000000000000000000000000000000007bffffffffffffffffffffffffffffffffffffffffffffffffffffffff19166020820180517bffffffffffffffffffffffffffffffffffffffffffffffffffffffff83818316178352505050506103ff565b5050565b6103fb828260405160240161037992919061054d565b6040516020818303038152906040527f9710a9d0000000000000000000000000000000000000000000000000000000007bffffffffffffffffffffffffffffffffffffffffffffffffffffffff19166020820180517bffffffffffffffffffffffffffffffffffffffffffffffffffffffff83818316178352505050506103ff565b5050565b60008151905060006a636f6e736f6c652e6c6f679050602083016000808483855afa5050505050565b600081359050610437816106ac565b92915050565b60006020828403121561044f57600080fd5b600061045d84828501610428565b91505092915050565b61046f816105b4565b82525050565b600061048082610598565b61048a81856105a3565b935061049a8185602086016105f0565b6104a38161069b565b840191505092915050565b6104b7816105e6565b82525050565b600060208201905081810360008301526104d78184610475565b905092915050565b600060408201905081810360008301526104f98185610475565b90506105086020830184610466565b9392505050565b600060608201905081810360008301526105298186610475565b90506105386020830185610466565b61054560408301846104ae565b949350505050565b600060408201905081810360008301526105678185610475565b905061057660208301846104ae565b9392505050565b600060208201905061059260008301846104ae565b92915050565b600081519050919050565b600082825260208201905092915050565b60006105bf826105c6565b9050919050565b600073ffffffffffffffffffffffffffffffffffffffff82169050919050565b6000819050919050565b60005b8381101561060e5780820151818401526020810190506105f3565b8381111561061d576000848401525b50505050565b600061062e826105e6565b91507fffffffffffffffffffffffffffffffffffffffffffffffffffffffffffffffff8214156106615761066061066c565b5b600182019050919050565b7f4e487b7100000000000000000000000000000000000000000000000000000000600052601160045260246000fd5b6000601f19601f8301169050919050565b6106b5816105b4565b81146106c057600080fd5b5056fea26469706673582212205b6c118ee43edd178f0709f8612ac5d918237ded81070f70e194cbd9f3361b5064736f6c63430008040033",
  "linkReferences": {},
  "deployedLinkReferences": {}
}